:020000040800F2
:10000000A81300200101000885150008E71000086A
:100010008115000825090008251C000800000000C3
:100020000000000000000000000000005116000861
:100030005509000800000000B1150008D517000898
:100040001B0100081B0100081B0100081B01000820
:100050001B0100081B0100081B0100081B01000810
:100060001B0100081B0100081B0100081B01000800
:100070001B0100081B0100081B0100081B010008F0
:100080001B0100081B0100081B0100081B010008E0
:100090001B0100081B0100081B0100081B010008D0
:1000A0001B0100081B0100081B0100081B010008C0
:1000B0001B010008A1180008000000001B01000837
:1000C0001B01000800000000000000001B010008E8
:1000D0000000000055190008F51900080000000094
:1000E0001B0100081B0100081B010008DFF80CD0F1
:1000F00000F078FB0048004709290008A8130020F9
:100100000648804706480047FEE7FEE7FEE7FEE7B1
:10011000FEE7FEE7FEE7FEE7FEE7FEE7DD17000885
:10012000ED00000840EA01039B0703D009E008C97D
:10013000121F08C0042AFAD203E011F8013B00F8AC
:10014000013B521EF9D27047D2B201E000F8012BF8
:10015000491EFBD270470022F6E710B513460A4647
:1001600004461946FFF7F0FF204610BD30B505469E
:100170002A460B4612F8010B13F8014B08B1A042B6
:10018000F8D01CB1002802D06D1CF1E7284630BD24
:1001900010B5044604E00B7800F8013B03B1491C9C
:1001A000521EF8D2204610BD421C10F8011B002937
:1001B000FBD1801A7047F0B480EA0102D40F4200EC
:1001C000B2EB410F02D20246084611464A0042D025
:1001D000C30DDDB2C1F3C752AD1A202D35DAC1F31C
:1001E000160141F4000204B15242C5F1200602FAA0
:1001F00006F12A411044B3EBD05F23D0C4B1012DE6
:10020000A0EBC35009DCF0BC4FF0004202EAC3523D
:10021000DBB200F5000000F0FFB8400000F1807094
:1002200000EBC350A0F1807040EAD170490009E0B2
:10023000490841EAC071A0EBC35000F50000400836
:1002400000EBC350F0BC00F0DEB86142012202EBCB
:100250004101001BF6E7F0BC704781F00041AAE7BE
:1002600080F00040A7E780EA010210B502F00043E9
:10027000400022D04A001FD0010E01EB1261C0F3F2
:100280005600C2F3560240F4000042F40002A0FB04
:10029000022000047F39140400D0401C50EA1240B0
:1002A00001D44000491EC2B20C0604EBD010401C21
:1002B0004008802A02D003E0002010BD20F0010099
:1002C000002900DA0020184310BD30B480EA010292
:1002D00002F0004530F0004221F0004013D090B110
:1002E000C30DD40DC2F31601C0F31600E41A41F495
:1002F000000140F400027D34914201D3641C00E00F
:100300004900002C02DA30BC002070474FF4000096
:100310000023914201D3891A034340084FEA410167
:10032000F7D151B1914202D14FF0004105E002D224
:100330004FF0010101E06FF0010103EBC4502844CC
:1003400030BC00F060B896230022114600F064B87B
:1003500020F00040C10DC0F3160040F400007F29DA
:1003600001DA00207047962903DCC1F19601C840EC
:10037000704796398840704730B50B4601460020DB
:100380002022012409E021FA02F59D4205D303FA57
:1003900002F5491B04FA02F52844151EA2F10102D8
:1003A000F1DC30BD2DE9F05F0546002092469B460A
:1003B00088460646814640241BE02846414647467B
:1003C000224600F030FA53465A46C01A914110D3E3
:1003D00011461846224600F017FA2D1A67EB01085D
:1003E0004F4622460120002100F00EFA17EB0009CB
:1003F0004E41201EA4F10104DFDC484631462A4666
:100400004346BDE8F09F0029A8BF7047401C490043
:1004100008BF20F00100704710B4B0FA80FC00FA69
:100420000CF050EA010404BF10BC704749B1CCF194
:10043000200421FA04F411FA0CF118BF0121214320
:100440000843A3EB0C01CB1D4FEA00614FEA1020DB
:1004500042BF002010BC704700EBC350104400297D
:10046000A4BF10BC7047401C490008BF20F0010029
:1004700010BC70472DE9FE4F804681EA0300C00F93
:100480000C46009021F0004123F00045B8EB02003B
:10049000A94105D24046214690461C460B460246DD
:1004A00023F00040104347D0270DC7F30A00C3F3E1
:1004B0000A510290401A019040286BDAC3F31300EE
:1004C00040F4801B0098924620B10023D2EB030A2F
:1004D00063EB0B0B01985946C0F14002504600F007
:1004E00093F906460D4650465946019A00F0ABF97D
:1004F00010EB08006141002487EA115284EAE77397
:100500001A4340D0009A62B3019A012A4FEA075277
:1005100015DC001B61EB02014FF0004202EA0752BA
:10052000CDE90042001C41F5801132462B4600F017
:10053000ABF903B0BDE8F08F40462146F9E7001B58
:1005400061EB0201001C41F5801300185B4120188B
:10055000A2F5001747EB030140EAD570B6196D41CB
:1005600011E06D084FEA360645EAC0754FEA0752BA
:10057000001B61EB0201001C41F5801149084FEAA4
:1005800030000019514132462B4603B0BDE8F04F10
:1005900000F06BB90098012240000023D0EB02026A
:1005A00063EBE073009821464FEAE074B8EB00007B
:1005B00061EB0401E9E783F000435BE781F0004170
:1005C00058E72DE9FE4F81EA030404F0004421F0CE
:1005D000004100944FF0000B23F0004350EA010467
:1005E0005ED052EA03045BD0C3F30A54C1F30A5548
:1005F0002C44A4F2F3340194A0FB0254C1F3130180
:1006000041F48011C3F3130343F4801301FB02444C
:1006100000FB034E840A970A44EA815447EA835751
:10062000A4FB076802958D0A05FB07854FEA932C0A
:1006300004FB0C542705029D4FEA065847EA16377B
:10064000B5EB08056EEB070C870E920E47EA811793
:1006500042EA8312A7FB0201B6EB0B0164EB000434
:100660002B0D43EA0C335E1844EB1C50DA4651461E
:10067000E7FB0201C5F313044FEA0B3343EA1453BB
:100680004FEA0432019C43EA0603A4F10C040294ED
:10069000009CCDE900B400F0F7F803B0BDE8F08F9E
:1006A00000200146F9E72DE9F04D81EA030404F04A
:1006B000004B21F0004514464FF0000A23F00041A2
:1006C00050EA050220D054EA01021DD0C5F30A57B2
:1006D0000246C5F31303C1F31300C1F30A5640F4F5
:1006E000801543F48013A7EB0608101BD64608F2CA
:1006F000FD3873EB050002D308F1010801E0921800
:100700005B41B8F1000F03DA00200146BDE8F08D2F
:1007100000204FF48011064684460EE0171B73EB51
:10072000050705D3121B63EB050306434CEA010CD6
:1007300049084FEA300092185B4150EA0107EDD1B9
:1007400052EA030012D082EA040083EA050108435A
:1007500005D0101BAB4106D20122002306E0002287
:100760004FF0004302E06FF0010253101AEB060055
:100770004CEB085110EB0A0041EB0B01BDE8F04DCA
:1007800000F073B8C1F30A52C1F3130140F2FF3312
:1007900041F480119A4202DA00200146704740F28B
:1007A00033439A42A2F2334202DC524200F03BB899
:1007B00000F02AB830B5041E71F1000404DB4FF0DC
:1007C0000044404264EB0101141E73F1000405DB98
:1007D0001C464FF00043524263EB0403994208BFAA
:1007E000904230BD064C074D06E0E06840F0010342
:1007F00094E8070098471034AC42F6D3FFF77AFC30
:10080000B82C0008D82C0008202A04DB203A00FA73
:1008100002F1002070479140C2F1200320FA03F357
:10082000194390407047202A04DB203A21FA02F055
:100830000021704721FA02F3D040C2F1200291401A
:10084000084319467047202A06DBCB17203A41FAA5
:1008500002F043EAE07306E041FA02F3D040C2F14D
:100860002002914008431946704710B5141E73F1D9
:10087000000408DA401C41F1000192185B411A4360
:1008800001D120F0010010BD2DE9F04D92469B46AC
:1008900011B1B1FA81F202E0B0FA80F22032904652
:1008A000FFF7B2FF04460F4640EA0A0041EA0B0197
:1008B00053465A46084313D0114653EA010019D053
:1008C000C8F140025046FFF7AEFF05460E465046BF
:1008D00059464246FFF798FF084305D0012004E03F
:1008E00020463946BDE8F08D0020054346EAE07613
:1008F0002C4337430A986305E40AA0EB0800002262
:10090000FD0A44EA47540A3002D500200146E9E7CF
:10091000010510196941DDE9084500196941BDE883
:10092000F04DA2E700BFFEE70448006820B103488D
:100930000068401E01490860704700001400002054
:100940000246002003E000231354431C98B288425F
:10095000F9DB70477047000010B52049204800F0CF
:1009600039FE204908704FF47A7001F033FF1E49B8
:100970001B48643000F02EFE1C4908704FF47A705A
:1009800001F028FF1A491648C83000F023FE194923
:1009900008704FF47A7001F01DFF1749174800F0F6
:1009A00019FE174908704FF47A7001F013FF1549CA
:1009B0001248643000F00EFE134908704FF47A704C
:1009C00001F008FF11490D48C83000F003FE10493E
:1009D0000870104801F0FEFE10BD00002C09002038
:1009E00000780008920000204009002093000020B9
:1009F0005409002094000020680900202C79000888
:100A0000950000207C090020960000208609002027
:100A100097000020A086010010B5C82213A114A0E1
:100A200001F02CFF012000F085F800F0D9F8114802
:100A300001F0D0FE00F048F832210F48FFF780FFA8
:100A40000E4A0FA10C4801F04FF9642207A10A4891
:100A500001F014FF642205A113A001F00FFF64222E
:100A600002A114A001F00AFF10BD00004F4B0000CE
:100A700041540000E09304003E0B0020B40000202D
:100A800041542B43575341503D2243696761725390
:100A90004E2D2573222C22313233343536373839F6
:100AA000222C312C3000000041542B4349504D552D
:100AB000583D310041542B434950534552564552FD
:100AC0003D312C333333330010B5C82211A112A0AD
:100AD00001F0D4FE144890F826001449087012481A
:100AE00090F828004870104890F8290088700E4847
:100AF00090F82B00C8700C4890F82C000871002466
:100B000004E00A48005D0A490855641C052CF8DB1E
:100B100010BD00004F4B000041542B43495053542B
:100B2000414D41433F0000002C050020B40000204F
:100B30007900002010B5044624B1012C08D0022C05
:100B400012D10BE0C82209A109A001F097FE10BD47
:100B5000C82206A109A001F091FEF8E7C82203A16E
:100B600009A001F08BFEF2E70020F0E74F4B0000F8
:100B700041542B43574D4F44453D310041542B4385
:100B8000574D4F44453D320041542B43574D4F4440
:100B9000453D330010B5002400200C49088005E0D5
:100BA0000BA10C48FFF7E2FA00B10A4C0748008895
:100BB00000F400400028F3D007A10648FFF7D6FA5A
:100BC00008B1044C00E00024204610BD6C00002059
:100BD0003E0000002C0500202B495044000000007E
:100BE00010B540F6C41202A102A001F047FE10BDEC
:100BF0004F4B000041542B52535400002DE9F0415B
:100C0000A2B004460D461746984614222A4903A866
:100C1000FFF788FA284A143207CA8DE807002B46E6
:100C2000224626A115A801F05FF86B4603AA28A169
:100C300008A801F059F802202C49086000BF0026DE
:100C4000C8222BA12BA001F019FE0020FFF772FF94
:100C5000FFF7C6FF284801F0BDFD4FF47A7224A1CA
:100C600026A001F00BFE41F2883221A115A801F067
:100C700005FE0020FFF75EFF4FF47A721CA122A050
:100C800001F0FCFD4FF47A7219A122A001F0F6FDEB
:100C900040F6B83001F09EFD40F2DC5214A108A8E5
:100CA00001F0ECFD064644F6206001F093FD032EB2
:100CB000C5DC22B0BDE8F081982C000841542B43DC
:100CC000574A41503D222573222C222573220000D1
:100CD00041542B43495053544152543D22544350A4
:100CE000222C222573222C2573000000140C0140B5
:100CF0004F4B000041540000E093040041542B434B
:100D0000574C41500000000041542B4349504D5571
:100D1000583D300041542B434946535200000000D7
:100D2000F0B585B007460D46164626B92A4610A1ED
:100D3000684600F0D9FF012E04D12A4610A168466A
:100D400000F0D2FF322212A1684601F097FD60B197
:100D5000002404E0395D0F4800F07AFF641CAC42C7
:100D6000F8DB42F2107001F035FD05B0F0BD000077
:100D700041542B43495053454E443D2564000000E7
:100D800041542B43495053454E443D302C2564007B
:100D90003E00000000380140F0B5B7B005460C46F3
:100DA0000026C82105A8FFF7D6F900272A4612A178
:100DB00005A800F099FF05A8FFF7F6F9064624B943
:100DC00032460FA1684600F08FFF012C04D1324655
:100DD0000FA1684600F088FFC82211A1684601F003
:100DE0004DFD4FF47A720FA105A801F047FD0746AB
:100DF000384637B0F0BD000025730D0A0000000032
:100E000041542B43495053454E443D256400000056
:100E100041542B43495053454E443D302C256400EA
:100E20003E00000053454E44204F4B000149C8602E
:100E3000704700000020024030B5044604254FF4FE
:100E4000302000F085F80546042D17D10C480069C4
:100E500040F002000A49086108464461006940F018
:100E6000400008614FF4302000F072F80546044855
:100E7000006941F6FD71084001490861284630BD0E
:100E80000020024004200B49C96801F0010109B1AA
:100E900001200EE00749C96801F0040109B10220F0
:100EA00007E00449C96801F0100109B1032000E01E
:100EB00004207047002002400348006940F0800091
:100EC00001490861704700000020024078B50646DD
:100ED0000C46042500200090E80200F039F8054691
:100EE000042D24D11348006940F001001149086124
:100EF0003480E80200F02CF80546042D10D1B01C17
:100F00000090200C00990880E80200F021F80546C6
:100F10000848006941F6FE7108400649086106E08C
:100F20000448006941F6FE710840024908612846FC
:100F300078BD000000200240024803494860034891
:100F4000486070472301674500200240AB89EFCD20
:100F500000B502460423FFF795FF034603E0FFF7C1
:100F600091FF0346521E012B01D1002AF7D102B98D
:100F70000523184600BD000008B501210C2000F033
:100F800019FB0220ADF8000010208DF803000320AB
:100F90008DF8020069460B4800F018F80221094854
:100FA00000F09FF84020ADF800006946064800F0C8
:100FB0000DF88020ADF800006946034800F006F8FF
:100FC00008BD0000000C0140000801402DE9F0417F
:100FD000024600250026002000230024002791F867
:100FE00003C00CF00F0591F803C00CF0100CBCF11D
:100FF000000F03D091F802C04CEA050591F800C03B
:10100000BCF1000F31D0146800202BE04FF0010C30
:101010000CFA00F3B1F800C00CEA03069E4220D19E
:1010200083004FF00F0C0CFA03F7BC4305FA03FCE6
:101030004CEA040491F803C0BCF1280F06D14FF02C
:10104000010C0CFA00FCC2F814C00AE091F803C0CD
:10105000BCF1480F05D14FF0010C0CFA00FCC2F8AE
:1010600010C0401C0828D1D31460B1F800C0BCF1F6
:10107000FF0F34DD546800202EE000F1080C4FF023
:10108000010808FA0CF3B1F800C00CEA03069E420E
:1010900021D183004FF00F0C0CFA03F7BC4305FA83
:1010A00003FC4CEA040491F803C0BCF1280F05D1FD
:1010B00000F1080C08FA0CF8C2F8148091F803C08B
:1010C000BCF1480F07D100F1080C4FF0010808FAF5
:1010D0000CF8C2F81080401C0828CED35460BDE83C
:1010E000F0810161704700BFFEE70000F0B585B0F8
:1010F0000026002500270020CF490870CF4908703E
:10110000CF490870CF490870CF490870CF4908709F
:10111000CF480078CF490870CD4840784870CC4817
:1011200080788870CA48C078C870C948007908714A
:10113000C948FFF739F8C949087008460278C64916
:10114000C74800F05FFAC74801F044FBFFF704FC12
:1011500014216846FFF7F4FBC821C348FFF7F0FBF2
:10116000BC4BC24AC2A1C04800F0BEFDC6A1C948DE
:1011700000F0BAFD0020C849088000BFC6480088BA
:1011800000F4004018B1C5A001F036FB0646002E61
:10119000F4D00220C34908600026C3A001F02CFB54
:1011A000002831D00121B048FFF7F6FD00250220CC
:1011B000BC49086000BF00BFFFF7ECFC0546002DEE
:1011C000FAD0B9A001F018FB00B1F4E7B8A001F023
:1011D00013FB002834D0C8222946BA48FEF7D8FFAE
:1011E00042F2107001F0F6FAB648FEF7DDFF07464E
:1011F0004CF2503001F0EEFA0121A648FFF7CCFD89
:101200000220A84908601BE0A9A001F0F5FAB8B1D6
:10121000C8222946AB48FEF7BBFF42F2107001F02E
:10122000D9FAA848FEF7C0FF07464CF2503001F04B
:10123000D1FA01219748FFF7AFFD022099490860D4
:101240000024ECE09F48005D412811D19D49601CBD
:10125000085C4D280CD1A01C085C452808D1201D35
:101260007A49087097480978084497490860D5E09A
:101270009448005D4F2824D19249601C085C522894
:101280001FD1A01C085C44281BD170480078801D29
:10129000201A69490870201D6C490870894809782E
:1012A00008448A49086064480278874801686846AB
:1012B000FEF76EFF604802786946854800F0A2F9A3
:1012C000ACE08048005D552829D17E49601C085C4F
:1012D000522824D1A01C085C4C2820D15B480078FF
:1012E000401C201A55490870201D5849087075483F
:1012F000097808447749086014216846FFF720FB05
:101300004E480278714801686846FEF741FF4B4835
:10131000027869466E48643000F074F97EE06948EE
:10132000005D4F283FD16749601C085C52283AD1C4
:10133000A01C085C542836D144480078801C201A30
:101340003F49087014216846FFF7FAFA3C480278D2
:10135000604801686846FEF71BFF39480278694615
:101360005B48C83000F04EF9201D38490870042051
:10137000344908705348354909780844564908608B
:1013800014216846FFF7DCFA2E48027852480168BB
:101390006846FEF7FDFE2B48027869463048C8389B
:1013A00000F030F93AE04748005D492811D145493D
:1013B000601C085C4E280CD1A01C085C432808D196
:1013C000E01D224908703F480978084443490860F5
:1013D00024E03C48005D452820D13A49601C085C67
:1013E0004E281BD1A01C085C442817D11748007850
:1013F000401C201A1449087014216846FFF7A0FA0F
:1014000011480278354801686846FEF7C1FE0E486B
:10141000027869461248643800F0F4F8641CBC4253
:10142000FFF610AF4CF2503001F0D4F902201D4904
:10143000091F086005B0F0BD920000209300002055
:1014400094000020950000209600002098000020C5
:10145000B4000020B90000207E000020970000208A
:10146000F4790008A08601009A0900207C09002078
:1014700050696E233A2025730A2053657269616CA6
:10148000233A2025730A0000405570646174652A70
:1014900000000000620A00206C000020434F4E4E06
:1014A00045435400140C0140405645523F2A000069
:1014B000405550444154452A404855424E414D45BF
:1014C0002A000000760A0020A0000020A4000020CE
:1014D00000780008A8000020B0000020AC00002028
:1014E0002DE9F0410746884614461D46284600F07F
:1014F00033F8C5F1040007FA00F60F20284100EA8E
:101500000800064306F00F06E21704EBD262521100
:10151000920002F1E022D2F800212146E31704EB09
:10152000D3635B11A4EB431C012303FA0CF31A43AE
:101530002046E31704EBD3635B119B0003F1E02328
:10154000C3F800210348005D40EA06100149085530
:10155000BDE8F08100E400E00146072323EA010230
:101560001202054B18684FF6FF031840034B18434F
:101570001043014B186070470CED00E00000FA05C5
:1015800000BFFEE77047000010B5002807DA0A0721
:10159000140E054A00F00F031B1FD45403E00A0782
:1015A000130E024A135410BD18ED00E000E400E0F1
:1015B0007047000029B1064A92690243044B9A61C0
:1015C00004E0034A92698243014B9A61704700002C
:1015D0000010024030B502461E2400230AE01068C5
:1015E00008600868401C08B9184630BD121D091D66
:1015F000581CC3B2201EA4F10105ECB2EFD1204665
:10160000F3E700002DE9F04104460D461646002799
:10161000FFF792FC04EB86073420FFF707FC0B482A
:10162000844202D12046FFF707FC07E020462968E4
:10163000FFF74CFC00B903E0241D2D1DBC42F5D37F
:1016400000BFFFF739FCBDE8F0810000007800081A
:10165000704710B500F002F810BD00000CB5002076
:10166000019000903348006840F4803031490860B0
:1016700000BF3048006800F4003000900198401C22
:101680000190009818B90198B0F5A06FF1D12948E0
:10169000006800F4003010B10120009001E000204B
:1016A00000900098012843D12348006840F01000C2
:1016B000214908600846006820F0030008600846D9
:1016C000006840F0020008601A4840681949486004
:1016D0000846406848600846406840F480604860BA
:1016E0000846406820F47C1048600846406840F492
:1016F000E81048600846006840F08070086000BF4D
:101700000C48006800F000700028F9D009484068D3
:1017100020F00300074948600846406840F0020096
:10172000486000BF0348406800F00C000828F9D169
:101730000CBD0000001002400020024010B5FFF771
:101740000BF9002404E00F48005D0F490855641CA4
:10175000042CF8DB02200D4908600D4801F03AF82E
:101760000C4B0D4A0D490E48FFF748FA084801F0A6
:1017700031F800210BA0FFF70FFB02200349091FDE
:10178000086010BD7C09002074000020140C01408A
:10179000A0860100680900205409002040090020AB
:1017A0002C090020535441436C69656E74204F4BE3
:1017B0002100000010B5022005490860FFF72CF950
:1017C00002200349091F0860FFF790FC10BD0000CC
:1017D000140C014000B5FFF7A7F800BD10B5134881
:1017E000006840F00100114908600846406810494F
:1017F00008400E494860084600680E4908400B49F9
:1018000008600846006820F48020086008464068A8
:1018100020F4FE0048604FF41F008860FFF719FFB6
:101820004FF000600449086010BD00000010024045
:101830000000FFF8FFFFF6FE08ED00E010B51648C7
:1018400000681649B0FBF1F4B4F1807F01D30120A8
:1018500011E024F07F40401E4FF0E02148610F214D
:101860004FF0FF30FFF790FE00204FF0E02188613D
:1018700007200861002008B100BFFEE74FF0E0201C
:10188000006920F001004FF0E02108610021481EAE
:10189000FFF77AFE10BD00000000002040420F005C
:1018A00000B50A48008800F0010070B108480088BF
:1018B00040F40040064908800448008820F00100F8
:1018C00002490880002000F02DF800BD10040040FF
:1018D0006C00002070B505460C461048C06940F009
:1018E00002000E49C8610E480580001F04800C48A4
:1018F0002038008840F00100094920390880084854
:101900002C38008840F0010005492C39088002235A
:101910001D2203210120FFF7E3FD70BD00100240EE
:101920002C04004058B10021094A1180084924398B
:10193000098841F00101064A243A118007E0044970
:101940002439098821F00101014A243A11807047A5
:101950002404004010B51348008800F0200000B3B4
:101960001048001D0088C4B20F48008800F40040F1
:1019700088B900200D4908800B48008810B9012063
:10198000FFF7D0FF084801880088401C064A1080F5
:101990000748445405E00448008840F400400249E8
:1019A000088010BD003801406C0000202404004075
:1019B0002C05002010B540200A49086080200860EE
:1019C00044F6206000F006FF0121074800F0B9F856
:1019D0000020064908700649088042F2107000F0A5
:1019E000F9FE10BD1008014000440040C600002070
:1019F000C400002010B540F225511D4800F0BAF88F
:101A000020B31B4800F005F9C4B21A48007890B121
:101A100019481A490988445418480088401C174935
:101A2000088008460088262805DD01201449087032
:101A30000020124908800F48007838B9232C05D1BE
:101A400001200C49087000200C49088040F2244114
:101A5000074800F08FF8012809D10821044800F058
:101A600067F8034800F0D5F801200549087010BD5B
:101A7000004400406E000020700F0020C4000020D1
:101A8000C600002070B505460C462448806940F029
:101A90000400224988612248006820F47F402049E0
:101AA00008600846006840F40B4008601B48C069A5
:101AB00040F400301949C8610846006940F400301C
:101AC00008610846006920F4003008611548684341
:101AD000B0FBF4F014490880081D008842F20C01A4
:101AE00008431149091D08800846008840F020007D
:101AF00008800223262203210846FFF7F1FC00207C
:101B00000A49088000210848083800F01AF84020E7
:101B10000349143108608020086070BD0010024045
:101B20000008014040420F0008440040C40000206B
:101B300001F40072B2F5007F00D100BFCA430280F9
:101B4000704721B1828942F40052828104E0828987
:101B50004DF6FF731A408281704702460020B1F5AE
:101B6000007F00D100BF13880B400BB1012000E0C3
:101B70000020704770B50246002400230025002095
:101B800040F66A16B14200D100BFC1F3421501F020
:101B90001F03012606FA03F3012D02D19689334073
:101BA00006E0022D02D1168A334001E0968A3340C6
:101BB0000C12012606FA04F41688344013B10CB155
:101BC000012000E0002070BDF0B50346002400268F
:101BD0000025002040F66A17B94200D100BF184620
:101BE000C1F3421401F01F06012707FA06F5012C84
:101BF00001D10C3004E0022C01D1103000E014308F
:101C00001AB107682F43076002E00768AF43076017
:101C1000F0BD01468888C0F308007047C1F3080290
:101C20008280704700BFFEE710B5002240F22551C8
:101C30000148FFF7C9FF10BD0038014010B501226F
:101C400040F225510148FFF7BFFF10BD00380140A9
:101C500070B504460D4629462046FFF7DFFF00BF5A
:101C600080212046FFF779FF0028F9D070BD0000E1
:101C700010B5002240F225510148FFF7A5FF10BD25
:101C80000044004010B5012240F225510148FFF701
:101C90009BFF10BD0044004070B504460D46294628
:101CA0002046FFF7BBFF00BF80212046FFF755FF0E
:101CB0000028F9D070BD2DE9F04107460C461546C5
:101CC000002600BF05E014F8011B3846FFF7E4FFCB
:101CD000761CAE42F7D300BF40213846FFF73DFFE8
:101CE0000028F9D0BDE8F0810FB4084B10B504A965
:101CF00002AA039800F0F0F8044602A9002000F0C0
:101D00005EFD204610BC5DF814FB0000BF270008F4
:101D100037B514460846064B6A46214600F0B8F926
:101D200004466946002000F04FFD20463EBD0000FD
:101D3000C927000802E008C8121F08C1002AFAD10A
:101D400070477047002001E001C1121F002AFBD13B
:101D5000704700002DE9FF5F82B00021DDE904300B
:101D6000020DDDF840B0034318D044F61050A2F243
:101D7000FF3242431514119801281FD0A5EB0B0028
:101D8000401C5FEA000A4FF000064E4FDFF8389122
:101D9000B046504615D5CAF1000413E0119801244D
:101DA0004AA3012801D16FEA0B010298119AC0E9F8
:101DB0000031C0E9024206B0BDE8F09FCBF100005F
:101DC000DFE704460021404A491842EB0450CDE9C0
:101DD000001012E0E00707D032463B464046494635
:101DE000FEF7EFFB8046894632463B4610461946D1
:101DF000FEF7E7FB06460F466410002CEAD1DDE94A
:101E00000401DDE90023BAF1000F06DAFEF7D9FB81
:101E100042464B46FEF7D5FB05E0FEF744FC424642
:101E20004B46FEF740FC04460E460022284BFEF7C8
:101E3000C1FC03D84FF0FF30014607E00022254BDC
:101E400020463146FEF716FBFEF79CFC102409E005
:101E5000002C0ADB0A220023FEF7A4FA039B30328F
:101E60001A55641E50EA0102F2D1641C039AC4F1AF
:101E700011031444119A012A03D0012208430DD101
:101E80000AE0084304D000204FF0110B119072E7D4
:101E9000A3EB0B056D1E0DE05B4504DD4FF000026A
:101EA00005F1010504E003DA4FF00002A5F1010598
:101EB000002AECD002981199C0E90231C0E900452E
:101EC00079E70000000014400000F03F30000000FF
:101ED0000000F0430000E03F2DE9FF4F8BB09A4631
:101EE0000F460546002606E025280BD052460D99E0
:101EF00090476D1C761C28780028F5D10FB030462D
:101F0000BDE8F08F0024A0460122604900E00443B0
:101F100015F8013F203B02FA03F00842F7D1287878
:101F20002E2817D115F8010F44F004042A280ED0EA
:101F30006FF02F022878A0F1300109290AD808EBA8
:101F4000880102EB410100EB01086D1CF2E757F834
:101F5000048B6D1C287869283ED006DC0028CDD083
:101F600063280BD0642804D136E0732810D075287C
:101F70004BD052460D999047761C85E017F8040B1C
:101F80008DF8000000208DF80100E946012003E0F3
:101F900057F8049B4FF0FF3061074FF0000401D465
:101FA0000AE0641C44450DDA8442FADB19F8041097
:101FB0000029F6D106E0641C8442FCDB19F8041009
:101FC0000029F8D1264404E019F8010B52460D9976
:101FD0009047641EF8D257E001CF4FF00A0B00285B
:101FE00002DA40422D2102E0210504D52B218DF893
:101FF0002410012103E0E10705D02021F7E70DF1CE
:10200000200908910CE00021F9E701CF4FF00A0BFD
:10201000F9E75946FEF7B0F901F1300209F8012D50
:102020000028F6D1ADEB090000F1200B600701D4C8
:102030004FF00108D84502DDA8EB0B0000E00020BE
:102040008046002406E009A85246005D0D9990479D
:10205000641C761C08988442F5DB04E0302052466C
:102060000D999047761CB8F10001A8F10108F5DC44
:1020700005E019F8010B52460D999047761CBBF10B
:102080000001ABF1010BF4DC6D1C34E70928010001
:102090002DE9FF4F95B09B468946064600250FE285
:1020A000252877D100242746F84A0121059400E02D
:1020B000044316F8013F203B01FA03F01042F7D128
:1020C00030782A2811D06FF02F033078A0F1300239
:1020D000092A16D8059A44F0020402EB820203EBA7
:1020E00042021044761C0590EFE759F8042B059244
:1020F000002A03DA504244F40054059044F00204EC
:10210000761C30782E2816D116F8010F44F00404FE
:102110002A280DD06FF02F023078A0F13003092B60
:1021200009D807EB870302EB4303C718761CF3E7D4
:1021300059F8047B761C30786C280FD006DC4C28CC
:1021400017D068280DD06A2814D104E0742810D064
:102150007A280FD10DE044F400140AE044F480140E
:1021600001E044F440147278824202D104F58014F4
:10217000761C761C307866280BD013DC582877D074
:1021800009DC002875D04528F6D04628F4D0472829
:102190001AD19DE118E0632835D0642879D06528EC
:1021A00012D195E1702873D008DC6728F1D0692836
:1021B0006FD06E280DD06F2806D1B5E073282CD0D3
:1021C000752875D0782874D05A46179990476D1C99
:1021D00075E1C4F30250022809D003280DD0D9F8C4
:1021E000001004280DD00D6009F1040967E1D9F849
:1021F0000010EA17C1E90052F6E7D9F800100D8087
:10220000F2E70D70F0E719F8041B8DF800100020BC
:102210008DF80100EA46012003E059F804AB4FF0C5
:10222000FF3061074FF0000102D40DE008F1010119
:102230008846B9420FDA8045F8DB1AF80810002901
:10224000F4D108E008F1010188468142FADB1AF86E
:1022500008100029F6D105985B46A0EB0807214637
:102260003846179A00F094FA284400EB080507E076
:102270004DE029E10DE01AF8010B5A4617999047F5
:10228000B8F10108F7D25B4621463846179A13E1A8
:1022900042E00A220092C4F302524FF0000A022ADE
:1022A00008D059F804CB032A4FEAEC710AD00DE0AC
:1022B00029E02AE009F1070121F00702F2E802C152
:1022C000914609E00FFA8CFC4FEAEC71042A03D125
:1022D0004FFA8CFC4FEAEC71002907DA0A4600211C
:1022E000DCF1000C61EB02012D2202E0220504D595
:1022F0002B228DF80420012203E0E20701D02022E6
:10230000F7E7904659E00A2102E010220DE0102183
:102310004FF0000A00910BE010224FF0000A44F049
:1023200004040827009203E008224FF0000A0092FC
:10233000C4F30252022A05D059F804CB0021032A23
:1023400008D009E009F1070121F00702F2E802C113
:10235000914605E01FFA8CFC042A01D10CF0FF0C19
:102360004FF00008220728D5702806D0009B83F084
:10237000100353EA0A0305D00EE040228DF8042032
:10238000012208E05CEA010206D030228DF8042028
:102390008DF8050002229046009B83F0080353EA63
:1023A0000A030AD15CEA010201D1620705D5302295
:1023B0008DF804204FF001087F1E582804D034A067
:1023C00003900EA802900DE036A0F9E75346604650
:1023D000009AFDF7E7FF84460398825C0298401E4E
:1023E000029002705CEA0100F0D1029806A9081A76
:1023F00000F1200A600702D524F4803400E00127B0
:10240000574502DDA7EB0A0000E0002000EB0A01BF
:10241000009005984144401A0590E00306D45B46BD
:102420002146179A059800F0B3F90544002706E005
:1024300001A85A46C05D179990476D1C7F1C4745FF
:10244000F6DBE0030CD55B462146179A059800F0B1
:102450009FF9054404E030205A46179990476D1CB7
:102460000099481E00900029F5DC08E002980299C6
:102470005A460078491C0291179990476D1CBAF191
:102480000001AAF1010AF1DC65E100000928010060
:1024900030313233343536373839616263646566DA
:1024A000000000003031323334353637383941429C
:1024B000434445460000000000F058F90544761CEE
:1024C000307800287FF4ECAD19B02846BDE8F08FD5
:1024D000620700D4062709F1070222F0070CFCE886
:1024E0000223E14603F000485FEA080C02D00FF235
:1024F000702C0DE05FEA045C02D50FF2682C07E057
:102500005FEAC47C02D00FF2602C01E0AFF2700CE5
:102510004FF0FF3823F00043CDF850C065280CD0B1
:1025200006DC452809D046281DD047283DD13DE08E
:10253000662818D067287ED138E00021112F01DBF2
:10254000112000E0781CCDE9000106A90EA8FFF7D4
:1025500001FCDDE90F010E9A03910021009207F1C1
:10256000010A04914DE04FF000400097CDE90110C1
:1025700006A90EA8FFF7EEFBDDE90F0203920E9B02
:1025800011990022DDF80CA00093049211B9791C76
:1025900000EB010AB7EB0A0004D4C0F1FF3007F1E9
:1025A000010A0490AAEB0700019044E0012F00DA31
:1025B00001270021112F01DD112000E03846CDE96F
:1025C000000106A90EA8FFF7C5FBDDE90F010E9A71
:1025D0000391002104910092BA4621070CD403997B
:1025E000514500DA8A46BAF1010F05DD009AAAF1D9
:1025F0000101515C302908D0B84202DA10F1040F11
:1026000006DA0121CDE9011015E0AAF10101E9E79F
:10261000002805DC049901440491AAEB000102E0C2
:10262000411C514500DD8A460499401A401C019026
:102630004FF000400290200704D40198504501DB80
:10264000CDF8048000208DF84F0002980DF14F075F
:10265000B0F1004F25D02B200E9002984FF00208C9
:1026600000280CDA404202902D200E9007E00A214B
:102670000298FDF781FE3031029007F8011DB8F194
:102680000001A8F10108F2DC02980028EFD1791EC0
:102690000E980870307800F0200040F0450007F8F0
:1026A000020D12A8C01B00F107081498007800B1B1
:1026B000012000EB0A01019801EBE071059841440B
:1026C000401A401E0590E00306D45B462146179A47
:1026D000059800F05DF805441498007818B15A4642
:1026E000179990476D1CE00324D55B462146179A45
:1026F000059800F04DF805441CE00498002807DB1D
:10270000DDE90301884203DD0098405C179901E090
:10271000179930205A469047049805F10105401C4E
:1027200004900198401E019004D12E205A4617991A
:1027300090476D1CBAF10001AAF1010ADDDC05E049
:1027400017F8010B5A46179990476D1CB8F1000114
:10275000A8F10108F4DC5B462146179A0598ABE620
:102760002D0000002B000000200000002DE9F041AA
:10277000044600251E461746880404D405E0394661
:102780002020B0476D1C641EF9D52846BDE8F081B5
:102790002DE9F041044600251E469046C80301D5A8
:1027A000302700E02027880404D505E0414638465C
:1027B000B0476D1C641EF9D52846BDE8F0810A6853
:1027C000531C0B60107070470A68531C0B6010702C
:1027D00070470000074908604FF0E021096941F0A7
:1027E00001014FF0E022116100BF02490968002990
:1027F000FBD170471400002070B50446002509483D
:10280000008800F4004058B1002006490988C1F34F
:102810000E01054A505421461046FDF7A7FC054617
:10282000284670BD6C0000202C05002070B50546C0
:102830000C460026002010490880D5B1CCB111E02B
:1028400042F21070FFF7C6FF0B48008800F400400A
:1028500040B12846FFF7D0FF08B1012606E000206E
:1028600005490880601E80B2041EE9D100BF04B98A
:102870000126304670BD00006C0000202DE9F041BB
:1028800006460D46144600270020184908803146A8
:1028900017A000F05FF935B32CB31BE042F21070C3
:1028A000FFF798FF1148008800F4004090B12846D7
:1028B000FFF7A2FF08B1012710E00FA0FFF79CFF70
:1028C00018B90FA0FFF798FF08B1052706E0002010
:1028D00006490880601E80B2041EDFD100BF14B913
:1028E0000520BDE8F0813846FBE700006C000020C1
:1028F00025730D0A000000004641494C000000000D
:102900004552524F52000000FEF798FFFEF734FB8D
:1029100002206B4908604FF4E131242000F042F9B5
:102920004FF416512420FFF7ADF8FEF743FFFEF7F2
:1029300005FF0020634908806349087063480078F8
:1029400063490870614840784870604880788870B2
:102950005E48C078C8705D48007908715B4840796E
:1029600048715A48807988715848C079C871594867
:1029700000780872574840784872564880788872C4
:102980005448C078C8725348007908735248007898
:1029900048735148407888734F488078C8734E48D0
:1029A000C0780874FFF706F800214CA0FEF7F4F990
:1029B00002204349086082E04D48007800287ED01C
:1029C000FFF756F9002407E04A48015D404A04F148
:1029D00011001154601CC4B2272CF5DB00223E21EB
:1029E0003B48FEF79DF9322143A0FFF71FFF002867
:1029F0004DD0FFF719F942A0FFF7FEFE70B10B2290
:102A000042494348FFF757F944F62060FFF7E2FEDA
:102A10000B2240493E48FFF74EF936E03EA0FFF753
:102A2000EBFE70B10B223F493948FFF744F944F6F9
:102A30002060FFF7CFFE0B223B493548FFF73BF9FB
:102A400023E03AA0FFF7D8FE70B10B223A49304894
:102A5000FFF731F944F62060FFF7BCFE0B2237493F
:102A60002B48FFF728F910E035A0FFF7C5FE60B14D
:102A70000B2231492648FFF71EF93448FFF7AAFE1A
:102A80000B222E492248FFF716F9FFF7D7F800204E
:102A90000C490880164908702D4908800A490870B9
:102AA000002504E0002013494855681CC5B2322DAA
:102AB000F8DBFFF7E7F84FF47A70FFF78BFE7BE760
:102AC000100C01406C0000206E0000205E00002011
:102AD000C80400207900002074000020536572763D
:102AE000657220436F6E6E656374204F4B2100004A
:102AF000C6000020700F00202B4950440000000049
:102B00007365727665724131000000001C00002080
:102B100000440040270000207365727665724132E0
:102B200000000000320000203D0000207365727636
:102B3000657241330000000048000020530000206F
:102B400073657276657241370000000020A10700AE
:102B5000C40000200FB438B505A800900F48009AB3
:102B60000499FFF7D5F8002000900C48FDF71CFBF6
:102B700085B200240DE000BF0948008800F0400045
:102B80000028F9D00548005D0549091D0880601C32
:102B900084B2AC42EFDB38BC5DF814FBC800002007
:102BA000003801402DE9F05F05460E463001FDF783
:102BB000CAFB8146334905FB01F0FDF7C4FB8246A1
:102BC0004946FDF782FB07463846FDF7C1FB84B254
:102BD0002046FDF7B8FB83463946FDF741FB8246A8
:102BE0004FF08341FDF73FFB8146FDF7B1FB804687
:102BF0004FF6FF7000EA041404EB080084B2224888
:102C0000806940F00400204988610846806940F4EA
:102C1000804088611D48006820F47F601B4908607F
:102C20000846006840F40B6008601748C06840F42C
:102C300080401549C8600846C06820F48040C860DC
:102C400013480480001D008842F20C01084310491B
:102C5000091D08800846008840F0200008800223F3
:102C6000252203211846FEF73BFC41F61F4140F2A6
:102C7000E730FEF72FFE002006490880FEF752FEDF
:102C8000BDE8F09F40420F000010024004080140E0
:102C9000083801406C0000203139322E3136382E90
:102CA000302E31303900000000000000383038305C
:102CB0000000000000000000D82C000800000020E8
:102CC000C8000000341D0008A02D0008C800002026
:102CD000E0120000441D000800A24A0400000000A9
:102CE00000000000010203040607080900000000BC
:102CF00000000000AAAAAAAA0001A1FFFFFFFFAAE4
:102D0000AAAAAA0001A4FFFFFFFFAAAAAAAA00017B
:102D1000A2FFFFFFFFAAAAAAAA0001A5FFFFFFFFCB
:102D2000AAAAAAAA0001A3FFFFFFFFAAAAAAAA00B3
:102D300001A6FFFFFFFF66646664666466640000C8
:102D40000000000000000000000000000000000083
:102D500000000000000057694669436967617247D7
:102D6000756172645F56322E300000000000000072
:102D70000000000000000000000000000000000053
:102D80000000000000000000000000000000000043
:102D90000000000000000000000000000000000033
:04000005080000ED02
:00000001FF
