:020000040800F2
:1000000090130020010100088D150008111100084F
:100010008915000801090008A51C0008000000005F
:100020000000000000000000000000005917000858
:1000300019090008000000008F150008C118000809
:100040001B0100081B0100081B0100081B01000820
:100050001B0100081B0100081B0100081B01000810
:100060001B0100081B0100081B0100081B01000800
:100070001B0100081B0100081B0100081B010008F0
:100080001B0100081B0100081B0100081B010008E0
:100090001B0100081B0100081B0100081B010008D0
:1000A0001B0100081B0100081B0100081B010008C0
:1000B0001B01000825190008000000001B010008B2
:1000C0001B01000800000000000000001B010008E8
:1000D00000000000D9190008751A0008000000008F
:1000E0001B0100081B0100081B010008DFF80CD0F1
:1000F00000F066FB00480047D92900089013002053
:100100000648804706480047FEE7FEE7FEE7FEE7B1
:10011000FEE7FEE7FEE7FEE7FEE7FEE7C51800089C
:10012000ED000008D2B201E000F8012B491EFBD21D
:1001300070470022F6E710B513460A4604461946F2
:10014000FFF7F0FF204610BD30B505462A460B46A6
:1001500012F8010B13F8014B08B1A042F8D01CB102
:10016000002802D06D1CF1E7284630BD10B50446CA
:1001700004E00B7800F8013B03B1491C521EF8D291
:10018000204610BD421C10F8011B0029FBD1801A2B
:100190007047F0B480EA0102D40F4200B2EB410F85
:1001A00002D20246084611464A0042D0C30DDDB2D3
:1001B000C1F3C752AD1A202D35DAC1F3160141F44F
:1001C000000204B15242C5F1200602FA06F12A41AA
:1001D0001044B3EBD05F23D0C4B1012DA0EBC350CA
:1001E00009DCF0BC4FF0004202EAC352DBB200F57A
:1001F000000000F0FFB8400000F1807000EBC35039
:10020000A0F1807040EAD170490009E0490841EA54
:10021000C071A0EBC35000F50000400800EBC350D4
:10022000F0BC00F0DEB86142012202EB4101001B8C
:10023000F6E7F0BC704781F00041AAE780F000408B
:10024000A7E780EA010210B502F00043400022D087
:100250004A001FD0010E01EB1261C0F35600C2F339
:10026000560240F4000042F40002A0FB0220000409
:100270007F39140400D0401C50EA124001D44000E1
:10028000491EC2B20C0604EBD010401C4008802A64
:1002900002D003E0002010BD20F00100002900DAA8
:1002A0000020184310BD30B480EA010202F000457E
:1002B00030F0004221F0004013D090B1C30DD40DB6
:1002C000C2F31601C0F31600E41A41F4000140F431
:1002D00000027D34914201D3641C00E04900002CEF
:1002E00002DA30BC002070474FF400000023914236
:1002F00001D3891A034340084FEA4101F7D151B1B4
:10030000914202D14FF0004105E002D24FF00101CD
:1003100001E06FF0010103EBC450284430BC00F051
:1003200060B896230022114600F064B820F0004027
:10033000C10DC0F3160040F400007F2901DA00204F
:100340007047962903DCC1F19601C8407047963981
:100350008840704730B50B4601460020202201241A
:1003600009E021FA02F59D4205D303FA02F5491B83
:1003700004FA02F52844151EA2F10102F1DC30BD99
:100380002DE9F05F0546002092469B4688460646CA
:10039000814640241BE0284641464746224600F05D
:1003A00030FA53465A46C01A914110D311461846A6
:1003B000224600F017FA2D1A67EB01084F46224635
:1003C0000120002100F00EFA17EB00094E41201E1B
:1003D000A4F10104DFDC484631462A464346BDE825
:1003E000F09F0029A8BF7047401C490008BF20F0BB
:1003F0000100704710B4B0FA80FC00FA0CF050EA2B
:10040000010404BF10BC704749B1CCF1200421FAAB
:1004100004F411FA0CF118BF012121430843A3EBA6
:100420000C01CB1D4FEA00614FEA102042BF0020B3
:1004300010BC704700EBC35010440029A4BF10BC8F
:100440007047401C490008BF20F0010010BC7047F5
:100450002DE9FE4F804681EA0300C00F0C46009054
:1004600021F0004123F00045B8EB0200A94105D27C
:100470004046214690461C460B46024623F000406B
:10048000104347D0270DC7F30A00C3F30A51029067
:10049000401A019040286BDAC3F3130040F4801B2C
:1004A0000098924620B10023D2EB030A63EB0B0BBA
:1004B00001985946C0F14002504600F093F90646B3
:1004C0000D4650465946019A00F0ABF910EB080072
:1004D0006141002487EA115284EAE7731A4340D04D
:1004E000009A62B3019A012A4FEA075215DC001BF9
:1004F00061EB02014FF0004202EA0752CDE90042EF
:10050000001C41F5801132462B4600F0ABF903B0D8
:10051000BDE8F08F40462146F9E7001B61EB020180
:10052000001C41F5801300185B412018A2F500174C
:1005300047EB030140EAD570B6196D4111E06D0833
:100540004FEA360645EAC0754FEA0752001B61EBD9
:100550000201001C41F5801149084FEA30000019E2
:10056000514132462B4603B0BDE8F04F00F06BB965
:100570000098012240000023D0EB020263EBE073FD
:10058000009821464FEAE074B8EB000061EB0401EB
:10059000E9E783F000435BE781F0004158E72DE98C
:1005A000FE4F81EA030404F0004421F0004100946E
:1005B0004FF0000B23F0004350EA01045ED052EAF2
:1005C00003045BD0C3F30A54C1F30A552C44A4F2CC
:1005D000F3340194A0FB0254C1F3130141F48011E0
:1005E000C3F3130343F4801301FB024400FB034EE7
:1005F000840A970A44EA815447EA8357A4FB0768B0
:1006000002958D0A05FB07854FEA932C04FB0C54D9
:100610002705029D4FEA065847EA1637B5EB08054D
:100620006EEB070C870E920E47EA811742EA83129F
:10063000A7FB0201B6EB0B0164EB00042B0D43EAB0
:100640000C335E1844EB1C50DA465146E7FB0201BE
:10065000C5F313044FEA0B3343EA14534FEA043251
:10066000019C43EA0603A4F10C040294009CCDE92A
:1006700000B400F0F7F803B0BDE8F08F00200146A9
:10068000F9E72DE9F04D81EA030404F0004B21F075
:10069000004514464FF0000A23F0004150EA0502DD
:1006A00020D054EA01021DD0C5F30A570246C5F313
:1006B0001303C1F31300C1F30A5640F4801543F449
:1006C0008013A7EB0608101BD64608F2FD3873EB23
:1006D000050002D308F1010801E092185B41B8F16E
:1006E000000F03DA00200146BDE8F08D00204FF432
:1006F0008011064684460EE0171B73EB050705D3F1
:10070000121B63EB050306434CEA010C49084FEA50
:10071000300092185B4150EA0107EDD152EA030024
:1007200012D082EA040083EA0501084305D0101BB9
:10073000AB4106D20122002306E000224FF0004325
:1007400002E06FF0010253101AEB06004CEB085167
:1007500010EB0A0041EB0B01BDE8F04D00F073B85F
:10076000C1F30A52C1F3130140F2FF3341F4801187
:100770009A4202DA00200146704740F233439A421F
:10078000A2F2334202DC524200F03BB800F02AB839
:1007900030B5041E71F1000404DB4FF00044404208
:1007A00064EB0101141E73F1000405DB1C464FF0DD
:1007B0000043524263EB0403994208BF904230BDAC
:1007C000064C074D06E0E06840F0010394E807009E
:1007D00098471034AC42F6D3FFF78CFCBC2D0008D0
:1007E000DC2D0008202A04DB203A00FA02F1002068
:1007F00070479140C2F1200320FA03F3194390405F
:100800007047202A04DB203A21FA02F000217047C9
:1008100021FA02F3D040C2F1200291400843194668
:100820007047202A06DBCB17203A41FA02F043EA50
:10083000E07306E041FA02F3D040C2F12002914099
:1008400008431946704710B5141E73F1000408DA06
:10085000401C41F1000192185B411A4301D120F084
:10086000010010BD2DE9F04D92469B4611B1B1FA41
:1008700081F202E0B0FA80F220329046FFF7B2FF38
:1008800004460F4640EA0A0041EA0B0153465A4625
:10089000084313D0114653EA010019D0C8F14002B1
:1008A0005046FFF7AEFF05460E46504659464246B3
:1008B000FFF798FF084305D0012004E020463946A1
:1008C000BDE8F08D0020054346EAE0762C4337432F
:1008D0000A986305E40AA0EB08000022FD0A44EA36
:1008E00047540A3002D500200146E9E701051019F6
:1008F0006941DDE9084500196941BDE8F04DA2E70D
:1009000000BFFEE70246002003E000231354431C0F
:1009100098B28842F9DB70477047000010B51D4956
:100920001D4800F0DBFE1D490870012001F0B2FFF8
:100930001B491948643000F0D1FE1A4908700120A3
:1009400001F0A8FF18491448C83000F0C7FE174945
:100950000870012001F09EFF1549164800F0BEFE08
:1009600015490870012001F095FF144911486430C1
:1009700000F0B4FE12490870012001F08BFF11490C
:100980000C48C83000F0AAFE0F490870642001F03E
:1009900081FF10BDFC0800200078000868000020DE
:1009A0001009002069000020240900206A000020AE
:1009B000380900202C7900086B0000204C09002029
:1009C0006C000020600900206D00002010B5C822D6
:1009D00013A114A001F0BCFF012000F075F800F095
:1009E000C9F84FF4967001F055FF00F047F8322136
:1009F0000D48FFF787FF0D4A0DA10B4801F0B4F930
:100A0000642207A1084801F0A3FF642204A113A0F7
:100A100001F09EFF642202A113A001F099FF10BD16
:100A20004F4B000041540000180B00204A0B0020DF
:100A300041542B43575341503D22436967617247EC
:100A40007561726426534E2D2573222C2231323368
:100A5000343536373839222C312C300041542B4371
:100A600049504D55583D310041542B434950534551
:100A7000525645523D312C333333330010B5C82222
:100A80000AA10BA001F064FF0D4890F828000D4961
:100A900008700B4890F829004870094890F82B001E
:100AA0008870074890F82C00C87010BD4F4B0000AC
:100AB00041542B4349505354414D41433F000000A2
:100AC000FC0400204A0B002010B5044624B1012C80
:100AD00008D0022C12D10BE0C82209A109A001F014
:100AE00037FF10BDC82206A109A001F031FFF8E7C9
:100AF000C82203A109A001F02BFFF2E70020F0E7D4
:100B00004F4B000041542B43574D4F44453D31005E
:100B100041542B43574D4F44453D320041542B43E4
:100B2000574D4F44453D330010B5002400200C497B
:100B3000088005E00BA10C48FFF706FB00B10A4C4A
:100B40000748008800F400400028F3D007A10648B9
:100B5000FFF7FAFA08B1044C00E00024204610BD6B
:100B60004E0000203E000000FC0400202B495044B1
:100B70000000000010B540F6C41202A102A001F06E
:100B8000E7FE10BD4F4B000041542B525354000060
:100B90002DE9F04104460D4616461F4632212548F0
:100BA000FFF7B0FE00BF4FF00008C82222A123A02B
:100BB00001F0CEFE0020FFF787FFFFF7DBFF4FF4C9
:100BC000967001F067FE4FF47A721BA11CA001F031
:100BD000BFFE2B4622461DA1164801F0C5F841F282
:100BE000883215A1134801F0B3FE0020FFF76CFF17
:100BF0004FF47A7210A11AA001F0AAFE4FF47A7293
:100C00000DA11AA001F0A4FE32210A48FFF77AFED6
:100C10003B46324618A1074801F0A6F840F2DC52E4
:100C200005A1044801F094FE8046B8F1030FBADC38
:100C3000BDE8F081180B00204F4B0000415400002C
:100C400041542B43574C41500000000041542B436A
:100C5000574A41503D222573222C22257322000041
:100C600041542B4349504D55583D300041542B437E
:100C7000494653520000000041542B4349505354FD
:100C80004152543D22544350222C222573222C25BC
:100C900073000000F0B585B007460D46164626B92C
:100CA0002A4611A1684601F05FF8012E04D12A46B8
:100CB00011A1684601F058F8322213A1684601F0EC
:100CC00047FE70B1002407E0395D104801F000F8DC
:100CD00002200F490860641CAC42F5DB0A2001F0D9
:100CE000D9FD05B0F0BD000041542B434950534598
:100CF0004E443D256400000041542B434950534568
:100D00004E443D302C2564003E0000000038014078
:100D1000140C0140F0B5B7B005460C460026C821BA
:100D200005A8FFF706FA00272A4612A105A801F038
:100D30001BF805A8FFF726FA064624B932460FA18C
:100D4000684601F011F8012C04D132460FA1684623
:100D500001F00AF8C82211A1684601F0F9FD4FF42C
:100D60007A720FA105A801F0F3FD0746384637B0A7
:100D7000F0BD000025730D0A0000000041542B4314
:100D8000495053454E443D256400000041542B43D7
:100D9000495053454E443D302C2564003E00000030
:100DA00053454E44204F4B000149C8607047000036
:100DB0000020024030B5044604254FF4302000F0F6
:100DC0009FF80546042D17D10C48006940F0020039
:100DD0000A49086108464461006940F04000086122
:100DE0004FF4302000F08CF805460448006941F6C5
:100DF000FD71084001490861284630BD00200240CD
:100E000004200B49C96801F0010109B101200EE07D
:100E10000749C96801F0040109B1022007E004494B
:100E2000C96801F0100109B1032000E004207047F7
:100E3000002002400348006940F080000149086139
:100E400070470000002002400549096821F01001A8
:100E5000034A1160114609680143116070470000A0
:100E60000020024078B506460C460425002000907C
:100E7000E80200F045F80546042D24D11348006926
:100E800040F00100114908613480E80200F038F8B0
:100E90000546042D10D1B01C0090200C009908804C
:100EA000E80200F02DF805460848006941F6FE7199
:100EB00008400649086106E00448006941F6FE71F1
:100EC000084002490861284678BD00000020024021
:100ED00001460020034A106800F038000843106003
:100EE0007047000000200240024803494860034860
:100EF000486070472301674500200240AB89EFCD71
:100F000000B502460423FFF77BFF034603E0FFF72B
:100F100077FF0346521E012B01D1002AF7D102B9F7
:100F20000523184600BD000008B501210C2000F083
:100F30002FFB0220ADF8000010208DF803000320E5
:100F40008DF8020069460B4800F018F802210948A4
:100F500000F09FF84020ADF800006946064800F018
:100F60000DF88020ADF800006946034800F006F84F
:100F700008BD0000000C0140000801402DE9F041CF
:100F8000024600250026002000230024002791F8B7
:100F900003C00CF00F0591F803C00CF0100CBCF16D
:100FA000000F03D091F802C04CEA050591F800C08B
:100FB000BCF1000F31D0146800202BE04FF0010C81
:100FC0000CFA00F3B1F800C00CEA03069E4220D1EF
:100FD00083004FF00F0C0CFA03F7BC4305FA03FC37
:100FE0004CEA040491F803C0BCF1280F06D14FF07D
:100FF000010C0CFA00FCC2F814C00AE091F803C01E
:10100000BCF1480F05D14FF0010C0CFA00FCC2F8FE
:1010100010C0401C0828D1D31460B1F800C0BCF146
:10102000FF0F34DD546800202EE000F1080C4FF073
:10103000010808FA0CF3B1F800C00CEA03069E425E
:1010400021D183004FF00F0C0CFA03F7BC4305FAD3
:1010500003FC4CEA040491F803C0BCF1280F05D14D
:1010600000F1080C08FA0CF8C2F8148091F803C0DB
:10107000BCF1480F07D100F1080C4FF0010808FA45
:101080000CF8C2F81080401C0828CED35460BDE88C
:10109000F08101617047000038B5044600200090DF
:1010A00000F086FA012000F0DBFA1848006800F032
:1010B000020000900098022824D11020FFF7C4FEFF
:1010C0000220FFF705FF002000F0BEFA002000F02C
:1010D000D9FA002000F0CAFA2146002000F0E4FA14
:1010E000012000F0DBFA00BF392000F087FA002869
:1010F000FAD0022000F0E6FA00BF00F09DFA0828BE
:10110000FBD101E000BFFEE738BD00000010024047
:1011100000BFFEE7F0B585B00026002500270020BF
:10112000C8490870C8490870C8490870C84908709B
:10113000C8490870C8490870C8488078C84908700C
:10114000C648C0784870C54800798870C34840795F
:10115000C870C448FFF716F8C349087008460278FB
:10116000C049C24800F0D2FA642001F093FBFFF7B7
:10117000D5FB14216846FFF7C5FBC821BC48FFF723
:10118000C1FBB74BBB4ABCA1B94800F0EDFDC0A103
:10119000C24800F0E9FD0020C149088000BFC048F6
:1011A000008800F4004018B1BEA001F091FB064693
:1011B000002EF4D00220BD4908600026BCA001F03A
:1011C00087FB48B30121AA48FFF7A4FD00250220B0
:1011D000B649086000BFFFF7A7FC0546002DFAD00E
:1011E000B5A001F075FB002830D0C8222946B748C9
:1011F000FEF7BCFF0A2001F04DFBB448FEF7C2FF2A
:101200000746322001F046FB0121A448FFF782FD8A
:101210000220A649086019E0A7A001F059FBA8B177
:10122000C8222946A948FEF7A1FF0A2001F032FB97
:10123000A648FEF7A7FF0746322001F02BFB01214D
:101240009648FFF767FD0220984908600024ECE00B
:101250009E48005D412811D19C49601C085C4D28C6
:101260000CD1A01C085C452808D1201D7A490870C3
:1012700096480978084496490860D5E09348005D8F
:101280004F2824D19149601C085C52281FD1A01C12
:10129000085C44281BD170480078801D201A6949D9
:1012A0000870201D6C4908708848097808448949ED
:1012B000086064480278864801686846FEF756FF71
:1012C000604802786946844800F020FAACE07F4824
:1012D000005D552829D17D49601C085C522824D125
:1012E000A01C085C4C2820D15B480078401C201AC8
:1012F00055490870201D58490870744809780844F9
:101300007649086014216846FFF7FCFA4E480278D7
:10131000704801686846FEF729FF4B480278694625
:101320006D48643000F0F2F97EE06848005D4F28B7
:101330003FD16649601C085C52283AD1A01C085C69
:10134000542836D144480078801C201A3F49087040
:1013500014216846FFF7D6FA3C4802785F480168D6
:101360006846FEF703FF3948027869465A48C83094
:1013700000F0CCF9201D3849087004203449087069
:10138000524835490978084455490860142168468F
:10139000FFF7B8FA2E480278514801686846FEF710
:1013A000E5FE2B48027869463048C83800F0AEF9AF
:1013B0003AE04648005D492811D14449601C085C68
:1013C0004E280CD1A01C085C432808D1E01D2249FE
:1013D00008703E48097808444249086024E03B48C8
:1013E000005D452820D13949601C085C4E281BD17E
:1013F000A01C085C442817D117480078401C201A0C
:101400001449087014216846FFF77CFA11480278E5
:10141000344801686846FEF7A9FE0E48027869461E
:101420001248643800F072F9641CBC42FFF610AF39
:10143000322001F02FFA02201C49091F086005B074
:10144000F0BD000068000020690000206A00002054
:101450006B0000206C0000206E0000204A0B002072
:1014600088000020540000206D000020F47900085E
:10147000740900204C09002050696E233A2025731E
:101480000A2053657269616C233A2025730A0000B3
:10149000405570646174652A000000003C0A002019
:1014A0004E000020434F4E4E45435400140C014063
:1014B000405645523F2A0000405550444154452A69
:1014C000404855424E414D452A000000500A002038
:1014D0007400002078000020007800087C000020C4
:1014E00084000020800000202DE9F0410746884656
:1014F00014461D46284600F033F8C5F1040007FAEB
:1015000000F60F20284100EA0800064306F00F0607
:10151000E21704EBD2625211920002F1E022D2F8FB
:1015200000212146E31704EBD3635B11A4EB431CBA
:10153000012303FA0CF31A432046E31704EBD363A9
:101540005B119B0003F1E023C3F800210348005D19
:1015500040EA061001490855BDE8F08100E400E0CA
:101560000146072323EA01021202054B18684FF6D1
:10157000FF031840034B18431043014B186070479A
:101580000CED00E00000FA0500BFFEE77047704771
:1015900029B1064A92690243044B9A6104E0034A66
:1015A00092698243014B9A6170470000001002402B
:1015B0000F48006840F001000D4908600846406887
:1015C0000C4908400A494860084600680A49084032
:1015D000074908600846006820F480200860084633
:1015E000406820F4FE0048604FF41F008860704798
:1015F000001002400000FFF8FFFFF6FE10B50146A4
:101600000022002300204A11012A02D1094C23683C
:1016100006E0022A02D1074C236A01E0054C636A06
:1016200001F01F02012494401C400CB1012000E095
:10163000002010BD001002400248406800F00C007D
:10164000704700000010024001460020034A506825
:1016500020F0F00008435060704700000010024086
:101660000149086070470000000042420146002026
:10167000034A506820F4E06008435060704700005F
:101680000010024001460020034A506820F46050D8
:1016900040EAC100506070470010024001490866EE
:1016A000704700000000424202460020044B586888
:1016B00020F47C1042EA01031843014B5860704744
:1016C0000010024001460020034A506820F0030049
:1016D00008435060704700000010024030B50246D9
:1016E0001E2400230AE0106808600868401C08B93E
:1016F000184630BD121D091D581CC3B2201EA4F18E
:101700000105ECB2EFD12046F3E700002DE9F041EE
:1017100004460D4616460027FFF7E6FB04EB860756
:101720003420FFF741FB0B48844202D12046FFF7EB
:1017300041FB07E020462968FFF794FB00B903E06E
:10174000241D2D1DBC42F5D300BFFFF773FBBDE880
:10175000F081000000780008704710B500F002F832
:1017600010BD00000CB500200190009033480068C7
:1017700040F480303149086000BF3048006800F410
:10178000003000900198401C0190009818B9019811
:10179000B0F5A06FF1D12948006800F4003010B115
:1017A0000120009001E0002000900098012843D122
:1017B0002348006840F0100021490860084600688E
:1017C00020F0030008600846006840F0020008604E
:1017D0001A48406819494860084640684860084609
:1017E000406840F4806048600846406820F47C10FF
:1017F00048600846406840F4E810486008460068C1
:1018000040F08070086000BF0C48006800F0007075
:101810000028F9D00948406820F0030007494860D3
:101820000846406840F00200486000BF0348406836
:1018300000F00C000828F9D10CBD00000010024097
:101840000020024010B5FFF769F802200B4908603C
:101850004FF4FA7001F01EF8094B0A4A0A490B4886
:10186000FFF796F9642001F015F8002108A0FFF7B2
:1018700051FA02200149091F086010BD140C0140F3
:10188000380900202409002010090020FC0800204D
:10189000535441436C69656E74204F4B2100000026
:1018A00010B5022005490860FFF790F802200349AF
:1018B000091F0860FFF72EFC10BD0000140C01404A
:1018C0007047000010B51348006840F0010011494E
:1018D000086008464068104908400E4948600846BC
:1018E00000680E4908400B4908600846006820F46B
:1018F000802008600846406820F4FE0048604FF4ED
:101900001F008860FFF729FF4FF00060044908605E
:1019100010BD0000001002400000FFF8FFFFF6FEBF
:1019200008ED00E000B50A48008800F0010070B141
:101930000848008840F400400649088004480088B0
:1019400020F0010002490880002000F02DF800BDC1
:10195000100400404E00002070B505460C461048AB
:10196000C06940F002000E49C8610E480580001FA2
:1019700004800C482038008840F0010009492039D3
:10198000088008482C38008840F0010005492C39AF
:10199000088002231D2203210120FFF7A5FD70BD51
:1019A000001002402C04004058B10021094A118067
:1019B00008492439098841F00101064A243A118076
:1019C00007E004492439098821F00101014A243A39
:1019D000118070472404004010B51348008800F0BF
:1019E000200000B31048001D0088C4B20F480088D2
:1019F00000F4004088B900200D4908800B48008899
:101A000010B90120FFF7D0FF084801880088401C6A
:101A1000064A10800748445405E00448008840F412
:101A200000400249088010BD003801404E000020EF
:101A300024040040FC04002010B54020094908603F
:101A400080200860142000F025FF0121064800F0E6
:101A5000B8F8002005490870054908800A2000F000
:101A600019FF10BD10080140004400409000002004
:101A70008E00002010B540F225511D4800F0BAF844
:101A800020B31B4800F005F9C4B21A48007890B1A1
:101A900019481A490988445418480088401C1749B5
:101AA000088008460088262805DD012014490870B2
:101AB0000020124908800F48007838B9232C05D13E
:101AC00001200C49087000200C49088040F2244194
:101AD000074800F08FF8012809D10821044800F0D8
:101AE00067F8034800F0D5F801200549087010BDDB
:101AF0000044004050000020580F00208E000020BD
:101B00009000002070B505460C462448806940F0DE
:101B10000400224988612248006820F47F4020495F
:101B200008600846006840F40B4008601B48C06924
:101B300040F400301949C8610846006940F400309B
:101B400008610846006920F40030086115486843C0
:101B5000B0FBF4F014490880081D008842F20C0123
:101B600008431149091D08800846008840F02000FC
:101B700008800223262203210846FFF7B5FC002037
:101B80000A49088000210848083800F01AF8402067
:101B90000349143108608020086070BD00100240C5
:101BA0000008014040420F00084400408E00002021
:101BB00001F40072B2F5007F00D100BFCA43028079
:101BC000704721B1828942F40052828104E0828907
:101BD0004DF6FF731A408281704702460020B1F52E
:101BE000007F00D100BF13880B400BB1012000E043
:101BF0000020704770B50246002400230025002015
:101C000040F66A16B14200D100BFC1F3421501F09F
:101C10001F03012606FA03F3012D02D196893340F2
:101C200006E0022D02D1168A334001E0968A334045
:101C30000C12012606FA04F41688344013B10CB1D4
:101C4000012000E0002070BDF0B50346002400260E
:101C50000025002040F66A17B94200D100BF18469F
:101C6000C1F3421401F01F06012707FA06F5012C03
:101C700001D10C3004E0022C01D1103000E014300E
:101C80001AB107682F43076002E00768AF43076097
:101C9000F0BD01468888C0F308007047C1F3080210
:101CA0008280704700BFFEE710B5002240F2255148
:101CB0000148FFF7C9FF10BD0038014010B50122EF
:101CC00040F225510148FFF7BFFF10BD0038014029
:101CD00070B504460D4629462046FFF7DFFF00BFDA
:101CE00080212046FFF779FF0028F9D070BD000061
:101CF00010B5002240F225510148FFF7A5FF10BDA5
:101D00000044004010B5012240F225510148FFF780
:101D10009BFF10BD0044004070B504460D462946A7
:101D20002046FFF7BBFF00BF80212046FFF755FF8D
:101D30000028F9D070BD2DE9F04107460C46154644
:101D4000002600BF05E014F8011B3846FFF7E4FF4A
:101D5000761CAE42F7D300BF40213846FFF73DFF67
:101D60000028F9D0BDE8F0810FB4084B10B504A9E4
:101D700002AA039800F0F0F8044602A9002000F03F
:101D80005EFD204610BC5DF814FB00003F280008F3
:101D900037B514460846064B6A46214600F0B8F9A6
:101DA00004466946002000F04FFD20463EBD00007D
:101DB0004928000802E008C8121F08C1002AFAD109
:101DC00070477047002001E001C1121F002AFBD1BB
:101DD000704700002DE9FF5F82B00021DDE904308B
:101DE000020DDDF840B0034318D044F61050A2F2C3
:101DF000FF3242431514119801281FD0A5EB0B00A8
:101E0000401C5FEA000A4FF000064E4FDFF83891A1
:101E1000B046504615D5CAF1000413E011980124CC
:101E20004AA3012801D16FEA0B010298119AC0E977
:101E30000031C0E9024206B0BDE8F09FCBF10000DE
:101E4000DFE704460021404A491842EB0450CDE93F
:101E5000001012E0E00707D032463B4640464946B4
:101E6000FEF79DFB8046894632463B4610461946A2
:101E7000FEF795FB06460F466410002CEAD1DDE91B
:101E80000401DDE90023BAF1000F06DAFEF787FB53
:101E900042464B46FEF783FB05E0FEF7F2FB424667
:101EA0004B46FEF7EEFB04460E460022284BFEF79B
:101EB0006FFC03D84FF0FF30014607E00022254BAE
:101EC00020463146FEF7C4FAFEF74AFC102409E02A
:101ED000002C0ADB0A220023FEF752FA039B303261
:101EE0001A55641E50EA0102F2D1641C039AC4F12F
:101EF00011031444119A012A03D0012208430DD181
:101F00000AE0084304D000204FF0110B119072E753
:101F1000A3EB0B056D1E0DE05B4504DD4FF00002E9
:101F200005F1010504E003DA4FF00002A5F1010517
:101F3000002AECD002981199C0E90231C0E90045AD
:101F400079E70000000014400000F03F300000007E
:101F50000000F0430000E03F2DE9FF4F8BB09A46B0
:101F60000F460546002606E025280BD052460D995F
:101F700090476D1C761C28780028F5D10FB03046AC
:101F8000BDE8F08F0024A0460122604900E0044330
:101F900015F8013F203B02FA03F00842F7D12878F8
:101FA0002E2817D115F8010F44F004042A280ED06A
:101FB0006FF02F022878A0F1300109290AD808EB28
:101FC000880102EB410100EB01086D1CF2E757F8B4
:101FD000048B6D1C287869283ED006DC0028CDD003
:101FE00063280BD0642804D136E0732810D07528FC
:101FF0004BD052460D999047761C85E017F8040B9C
:102000008DF8000000208DF80100E946012003E072
:1020100057F8049B4FF0FF3061074FF0000401D4E4
:102020000AE0641C44450DDA8442FADB19F8041016
:102030000029F6D106E0641C8442FCDB19F8041088
:102040000029F8D1264404E019F8010B52460D99F5
:102050009047641EF8D257E001CF4FF00A0B0028DA
:1020600002DA40422D2102E0210504D52B218DF812
:102070002410012103E0E10705D02021F7E70DF14D
:10208000200908910CE00021F9E701CF4FF00A0B7D
:10209000F9E75946FEF75EF901F1300209F8012D22
:1020A0000028F6D1ADEB090000F1200B600701D448
:1020B0004FF00108D84502DDA8EB0B0000E000203E
:1020C0008046002406E009A85246005D0D9990471D
:1020D000641C761C08988442F5DB04E030205246EC
:1020E0000D999047761CB8F10001A8F10108F5DCC4
:1020F00005E019F8010B52460D999047761CBBF18B
:102100000001ABF1010BF4DC6D1C34E70928010080
:102110002DE9FF4F95B09B468946064600250FE204
:10212000252877D100242746F84A0121059400E0AC
:10213000044316F8013F203B01FA03F01042F7D1A7
:1021400030782A2811D06FF02F033078A0F13002B8
:10215000092A16D8059A44F0020402EB820203EB26
:1021600042021044761C0590EFE759F8042B0592C3
:10217000002A03DA504244F40054059044F002046B
:10218000761C30782E2816D116F8010F44F004047E
:102190002A280DD06FF02F023078A0F13003092BE0
:1021A00009D807EB870302EB4303C718761CF3E754
:1021B00059F8047B761C30786C280FD006DC4C284C
:1021C00017D068280DD06A2814D104E0742810D0E4
:1021D0007A280FD10DE044F400140AE044F480148E
:1021E00001E044F440147278824202D104F5801474
:1021F000761C761C307866280BD013DC582877D0F4
:1022000009DC002875D04528F6D04628F4D04728A8
:102210001AD19DE118E0632835D0642879D065286B
:1022200012D195E1702873D008DC6728F1D06928B5
:102230006FD06E280DD06F2806D1B5E073282CD052
:10224000752875D0782874D05A46179990476D1C18
:1022500075E1C4F30250022809D003280DD0D9F843
:10226000001004280DD00D6009F1040967E1D9F8C8
:102270000010EA17C1E90052F6E7D9F800100D8006
:10228000F2E70D70F0E719F8041B8DF8001000203C
:102290008DF80100EA46012003E059F804AB4FF045
:1022A000FF3061074FF0000102D40DE008F1010199
:1022B0008846B9420FDA8045F8DB1AF80810002981
:1022C000F4D108E008F1010188468142FADB1AF8EE
:1022D00008100029F6D105985B46A0EB08072146B7
:1022E0003846179A00F094FA284400EB080507E0F6
:1022F0004DE029E10DE01AF8010B5A461799904775
:10230000B8F10108F7D25B4621463846179A13E127
:1023100042E00A220092C4F302524FF0000A022A5D
:1023200008D059F804CB032A4FEAEC710AD00DE02B
:1023300029E02AE009F1070121F00702F2E802C1D1
:10234000914609E00FFA8CFC4FEAEC71042A03D1A4
:102350004FFA8CFC4FEAEC71002907DA0A4600219B
:10236000DCF1000C61EB02012D2202E0220504D514
:102370002B228DF80420012203E0E20701D0202265
:10238000F7E7904659E00A2102E010220DE0102103
:102390004FF0000A00910BE010224FF0000A44F0C9
:1023A00004040827009203E008224FF0000A00927C
:1023B000C4F30252022A05D059F804CB0021032AA3
:1023C00008D009E009F1070121F00702F2E802C193
:1023D000914605E01FFA8CFC042A01D10CF0FF0C99
:1023E0004FF00008220728D5702806D0009B83F004
:1023F000100353EA0A0305D00EE040228DF80420B2
:10240000012208E05CEA010206D030228DF80420A7
:102410008DF8050002229046009B83F0080353EAE2
:102420000A030AD15CEA010201D1620705D5302214
:102430008DF804204FF001087F1E582804D034A0E6
:1024400003900EA802900DE036A0F9E753466046CF
:10245000009AFDF795FF84460398825C0298401E1F
:10246000029002705CEA0100F0D1029806A9081AF5
:1024700000F1200A600702D524F4803400E001272F
:10248000574502DDA7EB0A0000E0002000EB0A013F
:10249000009005984144401A0590E00306D45B463D
:1024A0002146179A059800F0B3F90544002706E085
:1024B00001A85A46C05D179990476D1C7F1C47457F
:1024C000F6DBE0030CD55B462146179A059800F031
:1024D0009FF9054404E030205A46179990476D1C37
:1024E0000099481E00900029F5DC08E00298029946
:1024F0005A460078491C0291179990476D1CBAF111
:102500000001AAF1010AF1DC65E1000009280100DF
:102510003031323334353637383961626364656659
:10252000000000003031323334353637383941421B
:10253000434445460000000000F058F90544761C6D
:10254000307800287FF4ECAD19B02846BDE8F08F54
:10255000620700D4062709F1070222F0070CFCE805
:102560000223E14603F000485FEA080C02D00FF2B4
:10257000702C0DE05FEA045C02D50FF2682C07E0D6
:102580005FEAC47C02D00FF2602C01E0AFF2700C65
:102590004FF0FF3823F00043CDF850C065280CD031
:1025A00006DC452809D046281DD047283DD13DE00E
:1025B000662818D067287ED138E00021112F01DB72
:1025C000112000E0781CCDE9000106A90EA8FFF754
:1025D00001FCDDE90F010E9A03910021009207F141
:1025E000010A04914DE04FF000400097CDE9011041
:1025F00006A90EA8FFF7EEFBDDE90F0203920E9B82
:1026000011990022DDF80CA00093049211B9791CF5
:1026100000EB010AB7EB0A0004D4C0F1FF3007F168
:10262000010A0490AAEB0700019044E0012F00DAB0
:1026300001270021112F01DD112000E03846CDE9EE
:10264000000106A90EA8FFF7C5FBDDE90F010E9AF0
:102650000391002104910092BA4621070CD40399FA
:10266000514500DA8A46BAF1010F05DD009AAAF158
:102670000101515C302908D0B84202DA10F1040F90
:1026800006DA0121CDE9011015E0AAF10101E9E71F
:10269000002805DC049901440491AAEB000102E042
:1026A000411C514500DD8A460499401A401C0190A6
:1026B0004FF000400290200704D40198504501DB00
:1026C000CDF8048000208DF84F0002980DF14F07DF
:1026D000B0F1004F25D02B200E9002984FF0020849
:1026E00000280CDA404202902D200E9007E00A21CB
:1026F0000298FDF72FFE3031029007F8011DB8F166
:102700000001A8F10108F2DC02980028EFD1791E3F
:102710000E980870307800F0200040F0450007F86F
:10272000020D12A8C01B00F107081498007800B130
:10273000012000EB0A01019801EBE071059841448A
:10274000401A401E0590E00306D45B462146179AC6
:10275000059800F05DF805441498007818B15A46C1
:10276000179990476D1CE00324D55B462146179AC4
:10277000059800F04DF805441CE00498002807DB9C
:10278000DDE90301884203DD0098405C179901E010
:10279000179930205A469047049805F10105401CCE
:1027A00004900198401E019004D12E205A4617999A
:1027B00090476D1CBAF10001AAF1010ADDDC05E0C9
:1027C00017F8010B5A46179990476D1CB8F1000194
:1027D000A8F10108F4DC5B462146179A0598ABE6A0
:1027E0002D0000002B000000200000002DE9F0412A
:1027F000044600251E461746880404D405E03946E1
:102800002020B0476D1C641EF9D52846BDE8F08134
:102810002DE9F041044600251E469046C80301D527
:10282000302700E02027880404D505E041463846DB
:10283000B0476D1C641EF9D52846BDE8F0810A68D2
:10284000531C0B60107070470A68531C0B601070AB
:10285000704700004FF0E021096921F004014FF0BA
:10286000E0221161C21700EB5272C2F3C702074B9C
:102870001A701946097801EB4102C2EBC1114FF6FB
:10288000FF7202EAC101024A118070470000002075
:102890000200002001460D4A12884A434FF0E0230F
:1028A0005A6100229A6101221A6100BF4FF0E022B2
:1028B000106900F001021AB100F48032002AF5D04C
:1028C00000224FF0E0231A619A6170470200002055
:1028D00070B5044600250948008800F4004058B14E
:1028E000002006490988C1F30E01054A50542146CB
:1028F0001046FDF729FC0546284670BD4E00002015
:10290000FC04002070B505460C46002600200F4947
:102910000880CDB1C4B110E00A20FFF7BBFF0B481F
:10292000008800F4004040B12846FFF7D1FF08B10D
:10293000012606E0002005490880601E80B2041EC2
:10294000EAD100BF04B90126304670BD4E00002018
:102950002DE9F04106460D46144600270020174990
:102960000880314616A000F087F92DB324B31AE091
:102970000A20FFF78FFF1148008800F4004090B153
:102980002846FFF7A5FF08B1012710E00EA0FFF7CA
:102990009FFF18B90EA0FFF79BFF08B1052706E0BF
:1029A000002006490880601E80B2041EE0D100BFEE
:1029B00014B90520BDE8F0813846FBE74E00002041
:1029C00025730D0A000000004641494C000000003C
:1029D0004552524F520000008EB04FF4E010FEF707
:1029E0005BFB4820FFF736FFFEF79EFA0220714995
:1029F00008604FF4E131242000F066F94FF41651DD
:102A00002420FFF77FF8FEF74BFFFEF71BFF6A4B12
:102A10006A4A6BA101A8FFF7A7F900206F49088057
:102A20006F4908706F4800786F4908706D484078AA
:102A300048706C48807888706A48C078C870694867
:102A400000790871674840794871664880798871D3
:102A50006448C079C8716548807808726348C07856
:102A6000487262480079887260484079C87260484C
:102A7000007808735E48407848735D4880788873B2
:102A80005B48C078C873FEF7D7FF002159A0FEF756
:102A900041F9022047490860C8225BA15BA0FFF70B
:102AA00057FF86E05C4800780028FAD0FFF720F94D
:102AB000002407E05948015D4B4A04F1100011540D
:102AC000601CC4B2272CF5DBC8224FA101A8FFF778
:102AD0003FFF00223D214448FEF7DCF8322150A0A0
:102AE000FFF710FF00284BD0FFF7DEF84EA0FFF7EE
:102AF000EFFE68B10B224F494F48FFF71CF9142035
:102B0000FFF7C8FE0B224D494B48FFF714F935E09B
:102B10004BA0FFF7DDFE68B10B224C494648FFF79A
:102B20000AF91420FFF7B6FE0B2249494248FFF785
:102B300002F923E047A0FFF7CBFE68B10B2248491A
:102B40003D48FFF7F8F81420FFF7A4FE0B22454993
:102B50003948FFF7F0F811E043A0FFF7B9FE68B17C
:102B60000B223F493448FFF7E6F84FF4FA70FFF7BD
:102B700091FE0B223B493048FFF7DDF8FFF79EF846
:102B8000002016490880244908703A4908801449F1
:102B90000870C8221CA11DA0FFF7DAFE002504E082
:102BA00000201E494855681CC5B2322DF8DBFFF7DE
:102BB000A9F877E7100C014038090020240900200B
:102BC00041542B43495053544152543D2254435095
:102BD000222C222573222C25730000004E00002099
:102BE0005000002046000020980400204A0B0020DE
:102BF0004C09002053657276657220436F6E6E65D6
:102C00006374204F4B2100004F4B000041542B4375
:102C10004950434C4F53450090000020580F00206E
:102C20002B49504400000000736572766572413193
:102C30000000000004000020004400400F000020BD
:102C40007365727665724132000000001A00002040
:102C50002500002073657276657241330000000024
:102C6000300000203B0000207365727665724137AA
:102C7000000000008E0000200FB438B505A80090B9
:102C80000F48009A0499FFF783F8002000900C4841
:102C9000FDF778FA85B200240DE000BF09480088EE
:102CA00000F040000028F9D00548005D0549091DE5
:102CB0000880601C84B2AC42EFDB38BC5DF814FBCA
:102CC00098000020003801402DE9F05F05460E46CF
:102CD0003001FDF726FB8146334905FB01F0FDF786
:102CE00020FB82464946FDF7DEFA07463846FDF7E7
:102CF0001DFB84B22046FDF714FB83463946FDF7E1
:102D00009DFA82464FF08341FDF79BFA8146FDF71D
:102D10000DFB80464FF6FF7000EA041404EB080038
:102D200084B22248806940F0040020498861084646
:102D3000806940F4804088611D48006820F47F600D
:102D40001B4908600846006840F40B60086017489B
:102D5000C06840F480401549C8600846C06820F447
:102D60008040C86013480480001D008842F20C01B6
:102D700008431049091D08800846008840F02000DB
:102D800008800223252203211846FEF7ADFB41F6F9
:102D90001F4140F2E730FEF7DFFD002006490880C2
:102DA000FEF702FEBDE8F09F40420F000010024017
:102DB00004080140083801404E000020DC2D0008C6
:102DC0000000002094000000B41D0008702E0008D0
:102DD00094000020FC120000C41D00080000000048
:102DE000AAAAAAAA0001A1FFFFFFFFAAAAAAAA00F5
:102DF00001A4FFFFFFFFAAAAAAAA0001A2FFFFFFEA
:102E0000FFAAAAAAAA0001A5FFFFFFFFAAAAAAAAD1
:102E10000001A3FFFFFFFFAAAAAAAA0001A6FFFFC5
:102E2000FFFF66646664666466640000000000007C
:102E300057694669436967617247756172645F5695
:102E4000322E3000000000000000000000000000F2
:102E50000000000000000000000000000000000072
:102E60000000000000000000000000000000000062
:04000005080000ED02
:00000001FF
